{
  "_format": "hh-sol-artifact-1",
  "contractName": "Record",
  "sourceName": "contracts/Record.sol",
  "abi": [
    {
      "inputs": [
        {
          "internalType": "string",
          "name": "_Pregnancies",
          "type": "string"
        },
        {
          "internalType": "string",
          "name": "_Glucose",
          "type": "string"
        },
        {
          "internalType": "string",
          "name": "_BloodPressure",
          "type": "string"
        },
        {
          "internalType": "string",
          "name": "_SkinThickness",
          "type": "string"
        },
        {
          "internalType": "string",
          "name": "_Insulin",
          "type": "string"
        },
        {
          "internalType": "string",
          "name": "_BMI",
          "type": "string"
        },
        {
          "internalType": "string",
          "name": "_DiabetesPedigreeFunction",
          "type": "string"
        }
      ],
      "name": "editDiabetes",
      "outputs": [],
      "stateMutability": "nonpayable",
      "type": "function"
    },
    {
      "inputs": [
        {
          "internalType": "address",
          "name": "_address",
          "type": "address"
        },
        {
          "internalType": "uint256",
          "name": "_id",
          "type": "uint256"
        },
        {
          "internalType": "string",
          "name": "_name",
          "type": "string"
        },
        {
          "internalType": "string",
          "name": "_gender",
          "type": "string"
        },
        {
          "internalType": "string",
          "name": "_specialist",
          "type": "string"
        },
        {
          "internalType": "string",
          "name": "_hospitalName",
          "type": "string"
        },
        {
          "internalType": "string",
          "name": "_phoneNumber",
          "type": "string"
        },
        {
          "internalType": "string",
          "name": "_qualification",
          "type": "string"
        }
      ],
      "name": "editDoctor",
      "outputs": [],
      "stateMutability": "nonpayable",
      "type": "function"
    },
    {
      "inputs": [
        {
          "internalType": "string",
          "name": "_cp",
          "type": "string"
        },
        {
          "internalType": "string",
          "name": "_trestbps",
          "type": "string"
        },
        {
          "internalType": "string",
          "name": "_thalach",
          "type": "string"
        },
        {
          "internalType": "string",
          "name": "_chol",
          "type": "string"
        },
        {
          "internalType": "string",
          "name": "_fbs",
          "type": "string"
        },
        {
          "internalType": "string",
          "name": "_restecg",
          "type": "string"
        },
        {
          "internalType": "string",
          "name": "_exang",
          "type": "string"
        },
        {
          "internalType": "string",
          "name": "_Thalassemia",
          "type": "string"
        }
      ],
      "name": "editHeartDisease",
      "outputs": [],
      "stateMutability": "nonpayable",
      "type": "function"
    },
    {
      "inputs": [
        {
          "internalType": "uint256",
          "name": "_id",
          "type": "uint256"
        },
        {
          "internalType": "string",
          "name": "_name",
          "type": "string"
        },
        {
          "internalType": "string",
          "name": "_gender",
          "type": "string"
        },
        {
          "internalType": "string",
          "name": "_bloodGroup",
          "type": "string"
        },
        {
          "internalType": "string",
          "name": "_phoneNumber",
          "type": "string"
        },
        {
          "internalType": "string",
          "name": "_houseAddress",
          "type": "string"
        },
        {
          "internalType": "string",
          "name": "_issue",
          "type": "string"
        },
        {
          "internalType": "string",
          "name": "_medicine",
          "type": "string"
        },
        {
          "internalType": "string",
          "name": "_dob",
          "type": "string"
        }
      ],
      "name": "editPatient",
      "outputs": [],
      "stateMutability": "nonpayable",
      "type": "function"
    },
    {
      "inputs": [
        {
          "internalType": "address",
          "name": "_address",
          "type": "address"
        }
      ],
      "name": "getDiabetes",
      "outputs": [
        {
          "internalType": "string",
          "name": "",
          "type": "string"
        },
        {
          "internalType": "string",
          "name": "",
          "type": "string"
        },
        {
          "internalType": "string",
          "name": "",
          "type": "string"
        },
        {
          "internalType": "string",
          "name": "",
          "type": "string"
        },
        {
          "internalType": "string",
          "name": "",
          "type": "string"
        },
        {
          "internalType": "string",
          "name": "",
          "type": "string"
        },
        {
          "internalType": "string",
          "name": "",
          "type": "string"
        }
      ],
      "stateMutability": "view",
      "type": "function"
    },
    {
      "inputs": [
        {
          "internalType": "address",
          "name": "_address",
          "type": "address"
        }
      ],
      "name": "getDoctor",
      "outputs": [
        {
          "internalType": "uint256",
          "name": "",
          "type": "uint256"
        },
        {
          "internalType": "string",
          "name": "",
          "type": "string"
        },
        {
          "internalType": "string",
          "name": "",
          "type": "string"
        },
        {
          "internalType": "string",
          "name": "",
          "type": "string"
        },
        {
          "internalType": "string",
          "name": "",
          "type": "string"
        },
        {
          "internalType": "string",
          "name": "",
          "type": "string"
        },
        {
          "internalType": "string",
          "name": "",
          "type": "string"
        }
      ],
      "stateMutability": "view",
      "type": "function"
    },
    {
      "inputs": [],
      "name": "getDoctorAccounts",
      "outputs": [
        {
          "internalType": "address[]",
          "name": "",
          "type": "address[]"
        }
      ],
      "stateMutability": "view",
      "type": "function"
    },
    {
      "inputs": [],
      "name": "getDoctorCount",
      "outputs": [
        {
          "internalType": "uint256",
          "name": "",
          "type": "uint256"
        }
      ],
      "stateMutability": "view",
      "type": "function"
    },
    {
      "inputs": [],
      "name": "getDoctorName",
      "outputs": [
        {
          "internalType": "string[]",
          "name": "",
          "type": "string[]"
        }
      ],
      "stateMutability": "view",
      "type": "function"
    },
    {
      "inputs": [
        {
          "internalType": "address",
          "name": "_address",
          "type": "address"
        }
      ],
      "name": "getHeartdisease",
      "outputs": [
        {
          "internalType": "string",
          "name": "",
          "type": "string"
        },
        {
          "internalType": "string",
          "name": "",
          "type": "string"
        },
        {
          "internalType": "string",
          "name": "",
          "type": "string"
        },
        {
          "internalType": "string",
          "name": "",
          "type": "string"
        },
        {
          "internalType": "string",
          "name": "",
          "type": "string"
        },
        {
          "internalType": "string",
          "name": "",
          "type": "string"
        },
        {
          "internalType": "string",
          "name": "",
          "type": "string"
        }
      ],
      "stateMutability": "view",
      "type": "function"
    },
    {
      "inputs": [
        {
          "internalType": "address",
          "name": "_address",
          "type": "address"
        }
      ],
      "name": "getOthers",
      "outputs": [
        {
          "internalType": "uint256",
          "name": "",
          "type": "uint256"
        },
        {
          "internalType": "string",
          "name": "",
          "type": "string"
        },
        {
          "internalType": "string",
          "name": "",
          "type": "string"
        },
        {
          "internalType": "string",
          "name": "",
          "type": "string"
        },
        {
          "internalType": "string",
          "name": "",
          "type": "string"
        },
        {
          "internalType": "string",
          "name": "",
          "type": "string"
        },
        {
          "internalType": "string",
          "name": "",
          "type": "string"
        },
        {
          "internalType": "string",
          "name": "",
          "type": "string"
        },
        {
          "internalType": "string",
          "name": "",
          "type": "string"
        }
      ],
      "stateMutability": "view",
      "type": "function"
    },
    {
      "inputs": [
        {
          "internalType": "address",
          "name": "_address",
          "type": "address"
        }
      ],
      "name": "getPatient",
      "outputs": [
        {
          "internalType": "uint256",
          "name": "",
          "type": "uint256"
        },
        {
          "internalType": "string",
          "name": "",
          "type": "string"
        },
        {
          "internalType": "string",
          "name": "",
          "type": "string"
        },
        {
          "internalType": "string",
          "name": "",
          "type": "string"
        },
        {
          "internalType": "string",
          "name": "",
          "type": "string"
        },
        {
          "internalType": "string",
          "name": "",
          "type": "string"
        },
        {
          "internalType": "string",
          "name": "",
          "type": "string"
        },
        {
          "internalType": "string",
          "name": "",
          "type": "string"
        },
        {
          "internalType": "string",
          "name": "",
          "type": "string"
        }
      ],
      "stateMutability": "view",
      "type": "function"
    },
    {
      "inputs": [],
      "name": "getPatientAcc",
      "outputs": [
        {
          "internalType": "address[]",
          "name": "",
          "type": "address[]"
        }
      ],
      "stateMutability": "view",
      "type": "function"
    },
    {
      "inputs": [],
      "name": "getPatientCount",
      "outputs": [
        {
          "internalType": "uint256",
          "name": "",
          "type": "uint256"
        }
      ],
      "stateMutability": "view",
      "type": "function"
    },
    {
      "inputs": [],
      "name": "getPatientName",
      "outputs": [
        {
          "internalType": "string[]",
          "name": "",
          "type": "string[]"
        }
      ],
      "stateMutability": "view",
      "type": "function"
    },
    {
      "inputs": [
        {
          "internalType": "address",
          "name": "_address",
          "type": "address"
        }
      ],
      "name": "giveAccess",
      "outputs": [
        {
          "internalType": "bool",
          "name": "succus",
          "type": "bool"
        }
      ],
      "stateMutability": "nonpayable",
      "type": "function"
    },
    {
      "inputs": [
        {
          "internalType": "address",
          "name": "_address",
          "type": "address"
        }
      ],
      "name": "removeAccess",
      "outputs": [
        {
          "internalType": "bool",
          "name": "succus",
          "type": "bool"
        }
      ],
      "stateMutability": "nonpayable",
      "type": "function"
    },
    {
      "inputs": [
        {
          "internalType": "string",
          "name": "_Pregnancies",
          "type": "string"
        },
        {
          "internalType": "string",
          "name": "_Glucose",
          "type": "string"
        },
        {
          "internalType": "string",
          "name": "_BloodPressure",
          "type": "string"
        },
        {
          "internalType": "string",
          "name": "_SkinThickness",
          "type": "string"
        },
        {
          "internalType": "string",
          "name": "_Insulin",
          "type": "string"
        },
        {
          "internalType": "string",
          "name": "_BMI",
          "type": "string"
        },
        {
          "internalType": "string",
          "name": "_DiabetesPedigreeFunction",
          "type": "string"
        }
      ],
      "name": "setDiabetes",
      "outputs": [],
      "stateMutability": "nonpayable",
      "type": "function"
    },
    {
      "inputs": [
        {
          "internalType": "address",
          "name": "_address",
          "type": "address"
        },
        {
          "internalType": "uint256",
          "name": "_id",
          "type": "uint256"
        },
        {
          "internalType": "string",
          "name": "_name",
          "type": "string"
        },
        {
          "internalType": "string",
          "name": "_gender",
          "type": "string"
        },
        {
          "internalType": "string",
          "name": "_specialist",
          "type": "string"
        },
        {
          "internalType": "string",
          "name": "_hospitalName",
          "type": "string"
        },
        {
          "internalType": "string",
          "name": "_phoneNumber",
          "type": "string"
        },
        {
          "internalType": "string",
          "name": "_qualification",
          "type": "string"
        }
      ],
      "name": "setDoctor",
      "outputs": [],
      "stateMutability": "nonpayable",
      "type": "function"
    },
    {
      "inputs": [
        {
          "internalType": "string",
          "name": "_cp",
          "type": "string"
        },
        {
          "internalType": "string",
          "name": "_trestbps",
          "type": "string"
        },
        {
          "internalType": "string",
          "name": "_thalach",
          "type": "string"
        },
        {
          "internalType": "string",
          "name": "_chol",
          "type": "string"
        },
        {
          "internalType": "string",
          "name": "_fbs",
          "type": "string"
        },
        {
          "internalType": "string",
          "name": "_restecg",
          "type": "string"
        },
        {
          "internalType": "string",
          "name": "_exang",
          "type": "string"
        },
        {
          "internalType": "string",
          "name": "_Thalassemia",
          "type": "string"
        }
      ],
      "name": "setHeartDisease",
      "outputs": [],
      "stateMutability": "nonpayable",
      "type": "function"
    },
    {
      "inputs": [
        {
          "internalType": "uint256",
          "name": "_id",
          "type": "uint256"
        },
        {
          "internalType": "string",
          "name": "_name",
          "type": "string"
        },
        {
          "internalType": "string",
          "name": "_gender",
          "type": "string"
        },
        {
          "internalType": "string",
          "name": "_bloodGroup",
          "type": "string"
        },
        {
          "internalType": "string",
          "name": "_phoneNumber",
          "type": "string"
        },
        {
          "internalType": "string",
          "name": "_houseAddress",
          "type": "string"
        },
        {
          "internalType": "string",
          "name": "_issue",
          "type": "string"
        },
        {
          "internalType": "string",
          "name": "_medicine",
          "type": "string"
        },
        {
          "internalType": "string",
          "name": "_dob",
          "type": "string"
        }
      ],
      "name": "setPatient",
      "outputs": [],
      "stateMutability": "nonpayable",
      "type": "function"
    }
  ],
  "bytecode": "0x608060405234801561001057600080fd5b5061432d806100206000396000f3fe608060405234801561001057600080fd5b50600436106101375760003560e01c806376218492116100b8578063b5368e201161007c578063b5368e201461034c578063b87b426c14610384578063c190665b146103a0578063cf12e870146103be578063d0e6fc39146103ee578063e4a56d881461040c57610137565b8063762184921461028e578063765d26f2146102aa57806379111c1c146102e0578063870be7dd146102fe5780638823da6c1461031c57610137565b80633d62c1d2116100ff5780633d62c1d2146102025780634d0bc9841461021e57806355fa5bee1461023a57806357cbf975146102565780635e48468b1461027257610137565b806315e0dd561461013c5780631ed473ec146101745780632796c8f0146101925780632f04e064146101b05780633608dda4146101e6575b600080fd5b6101566004803603810190610151919061330a565b610442565b60405161016b999897969594939291906133e0565b60405180910390f35b61017c6109ca565b6040516101899190613563565b60405180910390f35b61019a610a58565b6040516101a79190613691565b60405180910390f35b6101ca60048036038101906101c5919061330a565b610b31565b6040516101dd97969594939291906136b3565b60405180910390f35b61020060048036038101906101fb9190613881565b610efe565b005b61021c60048036038101906102179190613a43565b6110a9565b005b61023860048036038101906102339190613881565b61138a565b005b610254600480360381019061024f9190613ba1565b6115ca565b005b610270600480360381019061026b9190613d07565b611757565b005b61028c60048036038101906102879190613ba1565b611b07565b005b6102a860048036038101906102a39190613d07565b611d29565b005b6102c460048036038101906102bf919061330a565b611f3b565b6040516102d79796959493929190613eb1565b60405180910390f35b6102e8612426565b6040516102f59190613f51565b60405180910390f35b610306612430565b6040516103139190613691565b60405180910390f35b6103366004803603810190610331919061330a565b612509565b6040516103439190613f87565b60405180910390f35b6103666004803603810190610361919061330a565b6125a8565b60405161037b999897969594939291906133e0565b60405180910390f35b61039e60048036038101906103999190613a43565b612a9d565b005b6103a8612c75565b6040516103b59190613f51565b60405180910390f35b6103d860048036038101906103d3919061330a565b612c7f565b6040516103e59190613f87565b60405180910390f35b6103f6612d1f565b6040516104039190613563565b60405180910390f35b6104266004803603810190610421919061330a565b612dad565b6040516104399796959493929190613eb1565b60405180910390f35b6000606080606080606080606080600460008b73ffffffffffffffffffffffffffffffffffffffff1673ffffffffffffffffffffffffffffffffffffffff16815260200190815260200160002060003373ffffffffffffffffffffffffffffffffffffffff1673ffffffffffffffffffffffffffffffffffffffff16815260200190815260200160002060009054906101000a900460ff166104e357600080fd5b60008060008c73ffffffffffffffffffffffffffffffffffffffff1673ffffffffffffffffffffffffffffffffffffffff16815260200190815260200160002090508060000154816001018260020183600301846004018560050186600601876007018860080187805461055690613fd1565b80601f016020809104026020016040519081016040528092919081815260200182805461058290613fd1565b80156105cf5780601f106105a4576101008083540402835291602001916105cf565b820191906000526020600020905b8154815290600101906020018083116105b257829003601f168201915b505050505097508680546105e290613fd1565b80601f016020809104026020016040519081016040528092919081815260200182805461060e90613fd1565b801561065b5780601f106106305761010080835404028352916020019161065b565b820191906000526020600020905b81548152906001019060200180831161063e57829003601f168201915b5050505050965085805461066e90613fd1565b80601f016020809104026020016040519081016040528092919081815260200182805461069a90613fd1565b80156106e75780601f106106bc576101008083540402835291602001916106e7565b820191906000526020600020905b8154815290600101906020018083116106ca57829003601f168201915b505050505095508480546106fa90613fd1565b80601f016020809104026020016040519081016040528092919081815260200182805461072690613fd1565b80156107735780601f1061074857610100808354040283529160200191610773565b820191906000526020600020905b81548152906001019060200180831161075657829003601f168201915b5050505050945083805461078690613fd1565b80601f01602080910402602001604051908101604052809291908181526020018280546107b290613fd1565b80156107ff5780601f106107d4576101008083540402835291602001916107ff565b820191906000526020600020905b8154815290600101906020018083116107e257829003601f168201915b5050505050935082805461081290613fd1565b80601f016020809104026020016040519081016040528092919081815260200182805461083e90613fd1565b801561088b5780601f106108605761010080835404028352916020019161088b565b820191906000526020600020905b81548152906001019060200180831161086e57829003601f168201915b5050505050925081805461089e90613fd1565b80601f01602080910402602001604051908101604052809291908181526020018280546108ca90613fd1565b80156109175780601f106108ec57610100808354040283529160200191610917565b820191906000526020600020905b8154815290600101906020018083116108fa57829003601f168201915b5050505050915080805461092a90613fd1565b80601f016020809104026020016040519081016040528092919081815260200182805461095690613fd1565b80156109a35780601f10610978576101008083540402835291602001916109a3565b820191906000526020600020905b81548152906001019060200180831161098657829003601f168201915b50505050509050995099509950995099509950995099509950509193959799909294969850565b60606009805480602002602001604051908101604052809291908181526020018280548015610a4e57602002820191906000526020600020905b8160009054906101000a900473ffffffffffffffffffffffffffffffffffffffff1673ffffffffffffffffffffffffffffffffffffffff1681526020019060010190808311610a04575b5050505050905090565b6060600c805480602002602001604051908101604052809291908181526020016000905b82821015610b28578382906000526020600020018054610a9b90613fd1565b80601f0160208091040260200160405190810160405280929190818152602001828054610ac790613fd1565b8015610b145780601f10610ae957610100808354040283529160200191610b14565b820191906000526020600020905b815481529060010190602001808311610af757829003601f168201915b505050505081526020019060010190610a7c565b50505050905090565b60006060806060806060806000600160008a73ffffffffffffffffffffffffffffffffffffffff1673ffffffffffffffffffffffffffffffffffffffff16815260200190815260200160002090508060000154816001018260020183600301846005018560040186600601858054610ba890613fd1565b80601f0160208091040260200160405190810160405280929190818152602001828054610bd490613fd1565b8015610c215780601f10610bf657610100808354040283529160200191610c21565b820191906000526020600020905b815481529060010190602001808311610c0457829003601f168201915b50505050509550848054610c3490613fd1565b80601f0160208091040260200160405190810160405280929190818152602001828054610c6090613fd1565b8015610cad5780601f10610c8257610100808354040283529160200191610cad565b820191906000526020600020905b815481529060010190602001808311610c9057829003601f168201915b50505050509450838054610cc090613fd1565b80601f0160208091040260200160405190810160405280929190818152602001828054610cec90613fd1565b8015610d395780601f10610d0e57610100808354040283529160200191610d39565b820191906000526020600020905b815481529060010190602001808311610d1c57829003601f168201915b50505050509350828054610d4c90613fd1565b80601f0160208091040260200160405190810160405280929190818152602001828054610d7890613fd1565b8015610dc55780601f10610d9a57610100808354040283529160200191610dc5565b820191906000526020600020905b815481529060010190602001808311610da857829003601f168201915b50505050509250818054610dd890613fd1565b80601f0160208091040260200160405190810160405280929190818152602001828054610e0490613fd1565b8015610e515780601f10610e2657610100808354040283529160200191610e51565b820191906000526020600020905b815481529060010190602001808311610e3457829003601f168201915b50505050509150808054610e6490613fd1565b80601f0160208091040260200160405190810160405280929190818152602001828054610e9090613fd1565b8015610edd5780601f10610eb257610100808354040283529160200191610edd565b820191906000526020600020905b815481529060010190602001808311610ec057829003601f168201915b50505050509050975097509750975097509750975050919395979092949650565b6040518061014001604052803373ffffffffffffffffffffffffffffffffffffffff16815260200189815260200188815260200186815260200185815260200184815260200187815260200183815260200182815260200142815250600360003373ffffffffffffffffffffffffffffffffffffffff1673ffffffffffffffffffffffffffffffffffffffff16815260200190815260200160002060008201518160000160006101000a81548173ffffffffffffffffffffffffffffffffffffffff021916908373ffffffffffffffffffffffffffffffffffffffff1602179055506020820151816001019081610ff591906141ae565b50604082015181600201908161100b91906141ae565b50606082015181600301908161102191906141ae565b50608082015181600401908161103791906141ae565b5060a082015181600501908161104d91906141ae565b5060c082015181600601908161106391906141ae565b5060e082015181600701908161107991906141ae565b5061010082015181600801908161109091906141ae565b5061012082015181600901559050505050505050505050565b600660003373ffffffffffffffffffffffffffffffffffffffff1673ffffffffffffffffffffffffffffffffffffffff16815260200190815260200160002060009054906101000a900460ff161561110057600080fd5b6040518061012001604052808881526020018781526020018681526020018581526020018481526020018381526020018281526020013373ffffffffffffffffffffffffffffffffffffffff16815260200142815250600160008a73ffffffffffffffffffffffffffffffffffffffff1673ffffffffffffffffffffffffffffffffffffffff1681526020019081526020016000206000820151816000015560208201518160010190816111b491906141ae565b5060408201518160020190816111ca91906141ae565b5060608201518160030190816111e091906141ae565b5060808201518160040190816111f691906141ae565b5060a082015181600501908161120c91906141ae565b5060c082015181600601908161122291906141ae565b5060e08201518160070160006101000a81548173ffffffffffffffffffffffffffffffffffffffff021916908373ffffffffffffffffffffffffffffffffffffffff1602179055506101008201518160080155905050600a889080600181540180825580915050600190039060005260206000200160009091909190916101000a81548173ffffffffffffffffffffffffffffffffffffffff021916908373ffffffffffffffffffffffffffffffffffffffff160217905550600c8690806001815401808255809150506001900390600052602060002001600090919091909150908161130f91906141ae565b5060086000815480929190611323906142af565b91905055506001600660003373ffffffffffffffffffffffffffffffffffffffff1673ffffffffffffffffffffffffffffffffffffffff16815260200190815260200160002060006101000a81548160ff0219169083151502179055505050505050505050565b6040518061014001604052803373ffffffffffffffffffffffffffffffffffffffff16815260200189815260200188815260200186815260200185815260200184815260200187815260200183815260200182815260200142815250600360003373ffffffffffffffffffffffffffffffffffffffff1673ffffffffffffffffffffffffffffffffffffffff16815260200190815260200160002060008201518160000160006101000a81548173ffffffffffffffffffffffffffffffffffffffff021916908373ffffffffffffffffffffffffffffffffffffffff160217905550602082015181600101908161148191906141ae565b50604082015181600201908161149791906141ae565b5060608201518160030190816114ad91906141ae565b5060808201518160040190816114c391906141ae565b5060a08201518160050190816114d991906141ae565b5060c08201518160060190816114ef91906141ae565b5060e082015181600701908161150591906141ae565b5061010082015181600801908161151c91906141ae565b5061012082015181600901559050506001600460003373ffffffffffffffffffffffffffffffffffffffff1673ffffffffffffffffffffffffffffffffffffffff16815260200190815260200160002060003373ffffffffffffffffffffffffffffffffffffffff1673ffffffffffffffffffffffffffffffffffffffff16815260200190815260200160002060006101000a81548160ff0219169083151502179055505050505050505050565b6040518061012001604052803373ffffffffffffffffffffffffffffffffffffffff16815260200188815260200187815260200186815260200185815260200184815260200183815260200182815260200142815250600260003373ffffffffffffffffffffffffffffffffffffffff1673ffffffffffffffffffffffffffffffffffffffff16815260200190815260200160002060008201518160000160006101000a81548173ffffffffffffffffffffffffffffffffffffffff021916908373ffffffffffffffffffffffffffffffffffffffff16021790555060208201518160010190816116bb91906141ae565b5060408201518160020190816116d191906141ae565b5060608201518160030190816116e791906141ae565b5060808201518160040190816116fd91906141ae565b5060a082015181600501908161171391906141ae565b5060c082015181600601908161172991906141ae565b5060e082015181600701908161173f91906141ae565b50610100820151816008015590505050505050505050565b600560003373ffffffffffffffffffffffffffffffffffffffff1673ffffffffffffffffffffffffffffffffffffffff16815260200190815260200160002060009054906101000a900460ff16156117ae57600080fd5b6040518061016001604052808a81526020018981526020018881526020018781526020018681526020018581526020018481526020018381526020018281526020013373ffffffffffffffffffffffffffffffffffffffff168152602001428152506000803373ffffffffffffffffffffffffffffffffffffffff1673ffffffffffffffffffffffffffffffffffffffff16815260200190815260200160002060008201518160000155602082015181600101908161186d91906141ae565b50604082015181600201908161188391906141ae565b50606082015181600301908161189991906141ae565b5060808201518160040190816118af91906141ae565b5060a08201518160050190816118c591906141ae565b5060c08201518160060190816118db91906141ae565b5060e08201518160070190816118f191906141ae565b5061010082015181600801908161190891906141ae565b506101208201518160090160006101000a81548173ffffffffffffffffffffffffffffffffffffffff021916908373ffffffffffffffffffffffffffffffffffffffff16021790555061014082015181600a01559050506009339080600181540180825580915050600190039060005260206000200160009091909190916101000a81548173ffffffffffffffffffffffffffffffffffffffff021916908373ffffffffffffffffffffffffffffffffffffffff160217905550600b889080600181540180825580915050600190039060005260206000200160009091909190915090816119f691906141ae565b5060076000815480929190611a0a906142af565b91905055506001600560003373ffffffffffffffffffffffffffffffffffffffff1673ffffffffffffffffffffffffffffffffffffffff16815260200190815260200160002060006101000a81548160ff0219169083151502179055506001600460003373ffffffffffffffffffffffffffffffffffffffff1673ffffffffffffffffffffffffffffffffffffffff16815260200190815260200160002060003373ffffffffffffffffffffffffffffffffffffffff1673ffffffffffffffffffffffffffffffffffffffff16815260200190815260200160002060006101000a81548160ff021916908315150217905550505050505050505050565b6040518061012001604052803373ffffffffffffffffffffffffffffffffffffffff16815260200188815260200187815260200186815260200185815260200184815260200183815260200182815260200142815250600260003373ffffffffffffffffffffffffffffffffffffffff1673ffffffffffffffffffffffffffffffffffffffff16815260200190815260200160002060008201518160000160006101000a81548173ffffffffffffffffffffffffffffffffffffffff021916908373ffffffffffffffffffffffffffffffffffffffff1602179055506020820151816001019081611bf891906141ae565b506040820151816002019081611c0e91906141ae565b506060820151816003019081611c2491906141ae565b506080820151816004019081611c3a91906141ae565b5060a0820151816005019081611c5091906141ae565b5060c0820151816006019081611c6691906141ae565b5060e0820151816007019081611c7c91906141ae565b5061010082015181600801559050506001600460003373ffffffffffffffffffffffffffffffffffffffff1673ffffffffffffffffffffffffffffffffffffffff16815260200190815260200160002060003373ffffffffffffffffffffffffffffffffffffffff1673ffffffffffffffffffffffffffffffffffffffff16815260200190815260200160002060006101000a81548160ff02191690831515021790555050505050505050565b600560003373ffffffffffffffffffffffffffffffffffffffff1673ffffffffffffffffffffffffffffffffffffffff16815260200190815260200160002060009054906101000a900460ff16611d7f57600080fd5b6040518061016001604052808a81526020018981526020018881526020018781526020018681526020018581526020018481526020018381526020018281526020013373ffffffffffffffffffffffffffffffffffffffff168152602001428152506000803373ffffffffffffffffffffffffffffffffffffffff1673ffffffffffffffffffffffffffffffffffffffff168152602001908152602001600020600082015181600001556020820151816001019081611e3e91906141ae565b506040820151816002019081611e5491906141ae565b506060820151816003019081611e6a91906141ae565b506080820151816004019081611e8091906141ae565b5060a0820151816005019081611e9691906141ae565b5060c0820151816006019081611eac91906141ae565b5060e0820151816007019081611ec291906141ae565b50610100820151816008019081611ed991906141ae565b506101208201518160090160006101000a81548173ffffffffffffffffffffffffffffffffffffffff021916908373ffffffffffffffffffffffffffffffffffffffff16021790555061014082015181600a0155905050505050505050505050565b6060806060806060806060600460008973ffffffffffffffffffffffffffffffffffffffff1673ffffffffffffffffffffffffffffffffffffffff16815260200190815260200160002060003373ffffffffffffffffffffffffffffffffffffffff1673ffffffffffffffffffffffffffffffffffffffff16815260200190815260200160002060009054906101000a900460ff16611fd957600080fd5b6000600360008a73ffffffffffffffffffffffffffffffffffffffff1673ffffffffffffffffffffffffffffffffffffffff16815260200190815260200160002090508060010181600201826003018360040184600501856007018660080186805461204490613fd1565b80601f016020809104026020016040519081016040528092919081815260200182805461207090613fd1565b80156120bd5780601f10612092576101008083540402835291602001916120bd565b820191906000526020600020905b8154815290600101906020018083116120a057829003601f168201915b505050505096508580546120d090613fd1565b80601f01602080910402602001604051908101604052809291908181526020018280546120fc90613fd1565b80156121495780601f1061211e57610100808354040283529160200191612149565b820191906000526020600020905b81548152906001019060200180831161212c57829003601f168201915b5050505050955084805461215c90613fd1565b80601f016020809104026020016040519081016040528092919081815260200182805461218890613fd1565b80156121d55780601f106121aa576101008083540402835291602001916121d5565b820191906000526020600020905b8154815290600101906020018083116121b857829003601f168201915b505050505094508380546121e890613fd1565b80601f016020809104026020016040519081016040528092919081815260200182805461221490613fd1565b80156122615780601f1061223657610100808354040283529160200191612261565b820191906000526020600020905b81548152906001019060200180831161224457829003601f168201915b5050505050935082805461227490613fd1565b80601f01602080910402602001604051908101604052809291908181526020018280546122a090613fd1565b80156122ed5780601f106122c2576101008083540402835291602001916122ed565b820191906000526020600020905b8154815290600101906020018083116122d057829003601f168201915b5050505050925081805461230090613fd1565b80601f016020809104026020016040519081016040528092919081815260200182805461232c90613fd1565b80156123795780601f1061234e57610100808354040283529160200191612379565b820191906000526020600020905b81548152906001019060200180831161235c57829003601f168201915b5050505050915080805461238c90613fd1565b80601f01602080910402602001604051908101604052809291908181526020018280546123b890613fd1565b80156124055780601f106123da57610100808354040283529160200191612405565b820191906000526020600020905b8154815290600101906020018083116123e857829003601f168201915b50505050509050975097509750975097509750975050919395979092949650565b6000600854905090565b6060600b805480602002602001604051908101604052809291908181526020016000905b8282101561250057838290600052602060002001805461247390613fd1565b80601f016020809104026020016040519081016040528092919081815260200182805461249f90613fd1565b80156124ec5780601f106124c1576101008083540402835291602001916124ec565b820191906000526020600020905b8154815290600101906020018083116124cf57829003601f168201915b505050505081526020019060010190612454565b50505050905090565b600080600460003373ffffffffffffffffffffffffffffffffffffffff1673ffffffffffffffffffffffffffffffffffffffff16815260200190815260200160002060008473ffffffffffffffffffffffffffffffffffffffff1673ffffffffffffffffffffffffffffffffffffffff16815260200190815260200160002060006101000a81548160ff02191690831515021790555060019050919050565b600060608060608060608060608060008060008c73ffffffffffffffffffffffffffffffffffffffff1673ffffffffffffffffffffffffffffffffffffffff16815260200190815260200160002090508060000154816001018260020183600301846004018560050186600601876007018860080187805461262990613fd1565b80601f016020809104026020016040519081016040528092919081815260200182805461265590613fd1565b80156126a25780601f10612677576101008083540402835291602001916126a2565b820191906000526020600020905b81548152906001019060200180831161268557829003601f168201915b505050505097508680546126b590613fd1565b80601f01602080910402602001604051908101604052809291908181526020018280546126e190613fd1565b801561272e5780601f106127035761010080835404028352916020019161272e565b820191906000526020600020905b81548152906001019060200180831161271157829003601f168201915b5050505050965085805461274190613fd1565b80601f016020809104026020016040519081016040528092919081815260200182805461276d90613fd1565b80156127ba5780601f1061278f576101008083540402835291602001916127ba565b820191906000526020600020905b81548152906001019060200180831161279d57829003601f168201915b505050505095508480546127cd90613fd1565b80601f01602080910402602001604051908101604052809291908181526020018280546127f990613fd1565b80156128465780601f1061281b57610100808354040283529160200191612846565b820191906000526020600020905b81548152906001019060200180831161282957829003601f168201915b5050505050945083805461285990613fd1565b80601f016020809104026020016040519081016040528092919081815260200182805461288590613fd1565b80156128d25780601f106128a7576101008083540402835291602001916128d2565b820191906000526020600020905b8154815290600101906020018083116128b557829003601f168201915b505050505093508280546128e590613fd1565b80601f016020809104026020016040519081016040528092919081815260200182805461291190613fd1565b801561295e5780601f106129335761010080835404028352916020019161295e565b820191906000526020600020905b81548152906001019060200180831161294157829003601f168201915b5050505050925081805461297190613fd1565b80601f016020809104026020016040519081016040528092919081815260200182805461299d90613fd1565b80156129ea5780601f106129bf576101008083540402835291602001916129ea565b820191906000526020600020905b8154815290600101906020018083116129cd57829003601f168201915b505050505091508080546129fd90613fd1565b80601f0160208091040260200160405190810160405280929190818152602001828054612a2990613fd1565b8015612a765780601f10612a4b57610100808354040283529160200191612a76565b820191906000526020600020905b815481529060010190602001808311612a5957829003601f168201915b50505050509050995099509950995099509950995099509950509193959799909294969850565b600660003373ffffffffffffffffffffffffffffffffffffffff1673ffffffffffffffffffffffffffffffffffffffff16815260200190815260200160002060009054906101000a900460ff16612af357600080fd5b6040518061012001604052808881526020018781526020018681526020018581526020018481526020018381526020018281526020013373ffffffffffffffffffffffffffffffffffffffff16815260200142815250600160008a73ffffffffffffffffffffffffffffffffffffffff1673ffffffffffffffffffffffffffffffffffffffff168152602001908152602001600020600082015181600001556020820151816001019081612ba791906141ae565b506040820151816002019081612bbd91906141ae565b506060820151816003019081612bd391906141ae565b506080820151816004019081612be991906141ae565b5060a0820151816005019081612bff91906141ae565b5060c0820151816006019081612c1591906141ae565b5060e08201518160070160006101000a81548173ffffffffffffffffffffffffffffffffffffffff021916908373ffffffffffffffffffffffffffffffffffffffff16021790555061010082015181600801559050505050505050505050565b6000600754905090565b60006001600460003373ffffffffffffffffffffffffffffffffffffffff1673ffffffffffffffffffffffffffffffffffffffff16815260200190815260200160002060008473ffffffffffffffffffffffffffffffffffffffff1673ffffffffffffffffffffffffffffffffffffffff16815260200190815260200160002060006101000a81548160ff02191690831515021790555060019050919050565b6060600a805480602002602001604051908101604052809291908181526020018280548015612da357602002820191906000526020600020905b8160009054906101000a900473ffffffffffffffffffffffffffffffffffffffff1673ffffffffffffffffffffffffffffffffffffffff1681526020019060010190808311612d59575b5050505050905090565b6060806060806060806060600460008973ffffffffffffffffffffffffffffffffffffffff1673ffffffffffffffffffffffffffffffffffffffff16815260200190815260200160002060003373ffffffffffffffffffffffffffffffffffffffff1673ffffffffffffffffffffffffffffffffffffffff16815260200190815260200160002060009054906101000a900460ff16612e4b57600080fd5b6000600260008a73ffffffffffffffffffffffffffffffffffffffff1673ffffffffffffffffffffffffffffffffffffffff168152602001908152602001600020905080600101816002018260040183600301846005018560060186600701868054612eb690613fd1565b80601f0160208091040260200160405190810160405280929190818152602001828054612ee290613fd1565b8015612f2f5780601f10612f0457610100808354040283529160200191612f2f565b820191906000526020600020905b815481529060010190602001808311612f1257829003601f168201915b50505050509650858054612f4290613fd1565b80601f0160208091040260200160405190810160405280929190818152602001828054612f6e90613fd1565b8015612fbb5780601f10612f9057610100808354040283529160200191612fbb565b820191906000526020600020905b815481529060010190602001808311612f9e57829003601f168201915b50505050509550848054612fce90613fd1565b80601f0160208091040260200160405190810160405280929190818152602001828054612ffa90613fd1565b80156130475780601f1061301c57610100808354040283529160200191613047565b820191906000526020600020905b81548152906001019060200180831161302a57829003601f168201915b5050505050945083805461305a90613fd1565b80601f016020809104026020016040519081016040528092919081815260200182805461308690613fd1565b80156130d35780601f106130a8576101008083540402835291602001916130d3565b820191906000526020600020905b8154815290600101906020018083116130b657829003601f168201915b505050505093508280546130e690613fd1565b80601f016020809104026020016040519081016040528092919081815260200182805461311290613fd1565b801561315f5780601f106131345761010080835404028352916020019161315f565b820191906000526020600020905b81548152906001019060200180831161314257829003601f168201915b5050505050925081805461317290613fd1565b80601f016020809104026020016040519081016040528092919081815260200182805461319e90613fd1565b80156131eb5780601f106131c0576101008083540402835291602001916131eb565b820191906000526020600020905b8154815290600101906020018083116131ce57829003601f168201915b505050505091508080546131fe90613fd1565b80601f016020809104026020016040519081016040528092919081815260200182805461322a90613fd1565b80156132775780601f1061324c57610100808354040283529160200191613277565b820191906000526020600020905b81548152906001019060200180831161325a57829003601f168201915b50505050509050975097509750975097509750975050919395979092949650565b6000604051905090565b600080fd5b600080fd5b600073ffffffffffffffffffffffffffffffffffffffff82169050919050565b60006132d7826132ac565b9050919050565b6132e7816132cc565b81146132f257600080fd5b50565b600081359050613304816132de565b92915050565b6000602082840312156133205761331f6132a2565b5b600061332e848285016132f5565b91505092915050565b6000819050919050565b61334a81613337565b82525050565b600081519050919050565b600082825260208201905092915050565b60005b8381101561338a57808201518184015260208101905061336f565b60008484015250505050565b6000601f19601f8301169050919050565b60006133b282613350565b6133bc818561335b565b93506133cc81856020860161336c565b6133d581613396565b840191505092915050565b6000610120820190506133f6600083018c613341565b8181036020830152613408818b6133a7565b9050818103604083015261341c818a6133a7565b9050818103606083015261343081896133a7565b9050818103608083015261344481886133a7565b905081810360a083015261345881876133a7565b905081810360c083015261346c81866133a7565b905081810360e083015261348081856133a7565b905081810361010083015261349581846133a7565b90509a9950505050505050505050565b600081519050919050565b600082825260208201905092915050565b6000819050602082019050919050565b6134da816132cc565b82525050565b60006134ec83836134d1565b60208301905092915050565b6000602082019050919050565b6000613510826134a5565b61351a81856134b0565b9350613525836134c1565b8060005b8381101561355657815161353d88826134e0565b9750613548836134f8565b925050600181019050613529565b5085935050505092915050565b6000602082019050818103600083015261357d8184613505565b905092915050565b600081519050919050565b600082825260208201905092915050565b6000819050602082019050919050565b600082825260208201905092915050565b60006135cd82613350565b6135d781856135b1565b93506135e781856020860161336c565b6135f081613396565b840191505092915050565b600061360783836135c2565b905092915050565b6000602082019050919050565b600061362782613585565b6136318185613590565b935083602082028501613643856135a1565b8060005b8581101561367f578484038952815161366085826135fb565b945061366b8361360f565b925060208a01995050600181019050613647565b50829750879550505050505092915050565b600060208201905081810360008301526136ab818461361c565b905092915050565b600060e0820190506136c8600083018a613341565b81810360208301526136da81896133a7565b905081810360408301526136ee81886133a7565b9050818103606083015261370281876133a7565b9050818103608083015261371681866133a7565b905081810360a083015261372a81856133a7565b905081810360c083015261373e81846133a7565b905098975050505050505050565b600080fd5b600080fd5b7f4e487b7100000000000000000000000000000000000000000000000000000000600052604160045260246000fd5b61378e82613396565b810181811067ffffffffffffffff821117156137ad576137ac613756565b5b80604052505050565b60006137c0613298565b90506137cc8282613785565b919050565b600067ffffffffffffffff8211156137ec576137eb613756565b5b6137f582613396565b9050602081019050919050565b82818337600083830152505050565b600061382461381f846137d1565b6137b6565b9050828152602081018484840111156138405761383f613751565b5b61384b848285613802565b509392505050565b600082601f8301126138685761386761374c565b5b8135613878848260208601613811565b91505092915050565b600080600080600080600080610100898b0312156138a2576138a16132a2565b5b600089013567ffffffffffffffff8111156138c0576138bf6132a7565b5b6138cc8b828c01613853565b985050602089013567ffffffffffffffff8111156138ed576138ec6132a7565b5b6138f98b828c01613853565b975050604089013567ffffffffffffffff81111561391a576139196132a7565b5b6139268b828c01613853565b965050606089013567ffffffffffffffff811115613947576139466132a7565b5b6139538b828c01613853565b955050608089013567ffffffffffffffff811115613974576139736132a7565b5b6139808b828c01613853565b94505060a089013567ffffffffffffffff8111156139a1576139a06132a7565b5b6139ad8b828c01613853565b93505060c089013567ffffffffffffffff8111156139ce576139cd6132a7565b5b6139da8b828c01613853565b92505060e089013567ffffffffffffffff8111156139fb576139fa6132a7565b5b613a078b828c01613853565b9150509295985092959890939650565b613a2081613337565b8114613a2b57600080fd5b50565b600081359050613a3d81613a17565b92915050565b600080600080600080600080610100898b031215613a6457613a636132a2565b5b6000613a728b828c016132f5565b9850506020613a838b828c01613a2e565b975050604089013567ffffffffffffffff811115613aa457613aa36132a7565b5b613ab08b828c01613853565b965050606089013567ffffffffffffffff811115613ad157613ad06132a7565b5b613add8b828c01613853565b955050608089013567ffffffffffffffff811115613afe57613afd6132a7565b5b613b0a8b828c01613853565b94505060a089013567ffffffffffffffff811115613b2b57613b2a6132a7565b5b613b378b828c01613853565b93505060c089013567ffffffffffffffff811115613b5857613b576132a7565b5b613b648b828c01613853565b92505060e089013567ffffffffffffffff811115613b8557613b846132a7565b5b613b918b828c01613853565b9150509295985092959890939650565b600080600080600080600060e0888a031215613bc057613bbf6132a2565b5b600088013567ffffffffffffffff811115613bde57613bdd6132a7565b5b613bea8a828b01613853565b975050602088013567ffffffffffffffff811115613c0b57613c0a6132a7565b5b613c178a828b01613853565b965050604088013567ffffffffffffffff811115613c3857613c376132a7565b5b613c448a828b01613853565b955050606088013567ffffffffffffffff811115613c6557613c646132a7565b5b613c718a828b01613853565b945050608088013567ffffffffffffffff811115613c9257613c916132a7565b5b613c9e8a828b01613853565b93505060a088013567ffffffffffffffff811115613cbf57613cbe6132a7565b5b613ccb8a828b01613853565b92505060c088013567ffffffffffffffff811115613cec57613ceb6132a7565b5b613cf88a828b01613853565b91505092959891949750929550565b60008060008060008060008060006101208a8c031215613d2a57613d296132a2565b5b6000613d388c828d01613a2e565b99505060208a013567ffffffffffffffff811115613d5957613d586132a7565b5b613d658c828d01613853565b98505060408a013567ffffffffffffffff811115613d8657613d856132a7565b5b613d928c828d01613853565b97505060608a013567ffffffffffffffff811115613db357613db26132a7565b5b613dbf8c828d01613853565b96505060808a013567ffffffffffffffff811115613de057613ddf6132a7565b5b613dec8c828d01613853565b95505060a08a013567ffffffffffffffff811115613e0d57613e0c6132a7565b5b613e198c828d01613853565b94505060c08a013567ffffffffffffffff811115613e3a57613e396132a7565b5b613e468c828d01613853565b93505060e08a013567ffffffffffffffff811115613e6757613e666132a7565b5b613e738c828d01613853565b9250506101008a013567ffffffffffffffff811115613e9557613e946132a7565b5b613ea18c828d01613853565b9150509295985092959850929598565b600060e0820190508181036000830152613ecb818a6133a7565b90508181036020830152613edf81896133a7565b90508181036040830152613ef381886133a7565b90508181036060830152613f0781876133a7565b90508181036080830152613f1b81866133a7565b905081810360a0830152613f2f81856133a7565b905081810360c0830152613f4381846133a7565b905098975050505050505050565b6000602082019050613f666000830184613341565b92915050565b60008115159050919050565b613f8181613f6c565b82525050565b6000602082019050613f9c6000830184613f78565b92915050565b7f4e487b7100000000000000000000000000000000000000000000000000000000600052602260045260246000fd5b60006002820490506001821680613fe957607f821691505b602082108103613ffc57613ffb613fa2565b5b50919050565b60008190508160005260206000209050919050565b60006020601f8301049050919050565b600082821b905092915050565b6000600883026140647fffffffffffffffffffffffffffffffffffffffffffffffffffffffffffffffff82614027565b61406e8683614027565b95508019841693508086168417925050509392505050565b6000819050919050565b60006140ab6140a66140a184613337565b614086565b613337565b9050919050565b6000819050919050565b6140c583614090565b6140d96140d1826140b2565b848454614034565b825550505050565b600090565b6140ee6140e1565b6140f98184846140bc565b505050565b5b8181101561411d576141126000826140e6565b6001810190506140ff565b5050565b601f8211156141625761413381614002565b61413c84614017565b8101602085101561414b578190505b61415f61415785614017565b8301826140fe565b50505b505050565b600082821c905092915050565b600061418560001984600802614167565b1980831691505092915050565b600061419e8383614174565b9150826002028217905092915050565b6141b782613350565b67ffffffffffffffff8111156141d0576141cf613756565b5b6141da8254613fd1565b6141e5828285614121565b600060209050601f8311600181146142185760008415614206578287015190505b6142108582614192565b865550614278565b601f19841661422686614002565b60005b8281101561424e57848901518255600182019150602085019450602081019050614229565b8683101561426b5784890151614267601f891682614174565b8355505b6001600288020188555050505b505050505050565b7f4e487b7100000000000000000000000000000000000000000000000000000000600052601160045260246000fd5b60006142ba82613337565b91507fffffffffffffffffffffffffffffffffffffffffffffffffffffffffffffffff82036142ec576142eb614280565b5b60018201905091905056fea264697066735822122054ad5b85cdeb641ca2137bfcd51c2f71c605379a4d905481270448a4e4a792a964736f6c63430008110033",
  "linkReferences": {},
  "deployedLinkReferences": {}
}